:100A800017C00A7A4005920709021200010100808E
:100A90003209040000000000000012011001FF00F4
:100AA0000008D016530701020000000104030904E6
:100AB00011241FBECFE5D1E0CDBFDEBF20E0A0E610
:100AC000B0E001C01D92AC38B207E1F73CC1A82FDD
:100AD000B92F80E090E041E050EA609530E009C035
:100AE0002D9182279795879510F084279527305E62
:100AF000C8F36F5FA8F30895EADF8D939D9308957F
:100B0000CF93CFB7CF93DF93C395C89BE9F7C89B2B
:100B10000BC0C89B09C0C89B07C0C89B05C0C89B29
:100B200003C0C89B01C08FC06F93C0916E00DD27CA
:100B3000CA58DF4F2F9365E5C89B03C02F916F9173
:100B4000E6CF0F931F934F9320E040E15F9309B3EB
:100B5000017800FB27F93F9350E03BE039C0117862
:100B600040642F77012F5F5F1EC0406819B3117872
:100B70002F7752501FC0406409B32F770178D1F10D
:100B80005F5F00C023C0406219B32F77117891F1E5
:100B90005F5F00C025C001781027515012F45D5FDF
:100BA0000000115027952C3F19B3C8F61178012782
:100BB000015027952C3FC8F64227499309B3017885
:100BC00010274F73115027952C3FA8F64695469550
:100BD00019B3117879F00127015027952C3F98F629
:100BE0006B5A60F3315009B3B0F600C010E41ABF7D
:100BF00000271DC03B503195C31BD04010E41ABFE5
:100C00000881033C29F10B3419F120916C00198102
:100C1000110F1213EDCF093651F10D3211F0013ED3
:100C200039F7CAE01AB716FD02C0CA95D9F7009382
:100C300074003F915F914F911F910F912F916F9190
:100C4000CAB7C6FD61CFDF91CF91CFBFCF910895D5
:100C500020917400222369F310917200112309F589
:100C600034300AF13093720020936D001CC0009163
:100C700072000130B4F40AE530916F0034FD14C005
:100C800000936F00C1E6D0E013C0052710E000C05C
:100C900000000BBB1AC0052710E0221F1DC010E08A
:100CA00021C04AE502C032ED432FC4E1D0E032E07A
:100CB0001AB31168D89A0BB31ABB51E820E865E360
:100CC00020FF05270BBB279517951C3FF0F666956F
:100CD000B8F7B1F720FF05270BBB279517951C3FE9
:100CE000D0F62795179517FF052700001C3F0BBB73
:100CF000B0F629913A9519F70E7710917300110FFC
:100D0000C651D0400BBB11F010936C0010E41ABF19
:100D100001601AB31E77402F4E7754E05A95F1F7D1
:100D20000BBB1ABB4BBB85CFF201309711F48FE39D
:100D300095EC21E00C0120935700E8951124CF0198
:100D400002962C01089514BE88E181BD87E081BD23
:100D5000D09A2FEF85EA9EE0215080409040E1F745
:100D600000C00000D0988AE580936F008FEF8093D9
:100D7000600085B7826085BF8BB780648BBF712CA4
:100D8000312C412C512C85ED94E124E639B3317896
:100D900009F024E6215021F41092730010926C00A7
:100DA0000AB606FE06C0EC01ABDE80E48ABF712CF9
:100DB00004C0019759F7C0E0D0E0A89522E03212B4
:100DC0000CC0E0E8FAE0E054F10983E080935700BA
:100DD000E8953097C1F7412C512C832D803459F47C
:100DE000F2013297E0388AE0F80750F485E080930A
:100DF0005700E89505C0843019F4CD2B11F4E7C0F5
:100E0000312C80917200835087FD96C090916D00C7
:100E10009D3209F08FC0883009F08CC083EC80933C
:100E200061008AE580936F008091770080769091D1
:100E30007800882361F1911108C082E89AE09093CC
:100E400071008093700086E06AC0913051F44114C3
:100E50005104D9F080917B00807C482E50907C001A
:100E600014C0933081F48091790090917A005CDF16
:100E700080917B0090917C0057DF842D8F7329F443
:100E800090E4392E4CC09F73392E80E048C0809189
:100E9000790010926A00911106C010926B002AE648
:100EA00030E082E038C0953019F48093730025C09B
:100EB0009630E9F490917A00913019F48AE99AE039
:100EC00004C0923041F488E89AE0909371008093D6
:100ED000700082E124C09330C1F68111D6CF8CEA34
:100EE0009AE0909371008093700084E018C098306D
:100EF00079F0993031F4809375002AE630E080E093
:100F00000AC081E09A3009F080E02AE630E003C0B0
:100F100025E730E081E030937100209370009091DC
:100F20007E00911105C090917D00981708F4892FDB
:100F3000809360001092720080916F0084FF31C036
:100F4000809160008F3F69F1C82F893008F0C8E0B8
:100F50008C1B809360009091610088E889278093C2
:100F60006100CC2391F080917000A2E6B0E0E82F00
:100F7000F091710094919D9331969C2F980F9E1340
:100F8000F9CFF0937100E09370006C2F82E690E04F
:100F9000B3DDCC5FCC3019F08FEF80936000C0934D
:100FA0006F00C30101963C01803B944029F4EDE7BA
:100FB000FAE0E491EF3F59F40AB606FEE4CE8CE184
:100FC000C89B8CE18150E1F780E48ABFDCCED09AE7
:080FD0001BBE15BE53CDFFCF7F
:0400000300000A806F
:00000001FF
