:1000000031C04BC039C349C048C047C046C045C0D5
:1000100044C043C042C041C040C03FC03EC00902CE
:10002000190001010080640904000001FF000000C4
:100030000705810308000A12011001000000088171
:10004000179F0C04010002000116035500530042E3
:1000500000740069006E00790053005000490004EC
:100060000309040011241FBECFE5D1E0DEBFCDBFE0
:1000700010E0A0E6B0E0E6EAF9E002C005900D92DB
:10008000A436B107D9F720E0A4E6B0E001C01D9284
:10009000AB3AB207E1F74ED484C4B2CFFC01DB0126
:1000A000AC014C5F5F4F619128E030E080E890E068
:1000B000782F762309F0C09A70916000072E00C057
:1000C0000000000000000A94D1F7C29A709160000D
:1000D000072E00C00000000000000A94D1F7990F1D
:1000E000B1999F5FC098C29886952150310901F758
:1000F0009D93E417F507B9F6089580916F009091EC
:1001000070009C012F5F3F4F3093700020936F0071
:1001100020916C0027FF02C0880F991F80FD286086
:1001200020936800292F269520936900969587953E
:1001300080936A0064E670E088E690E0AFCFEF92CB
:10014000FF921F93CF93DF931F92CDB7DEB7182F87
:100150007C018E2D811B861748F46983CEDF809148
:100160006700F70181937F016981F3CF862F0F909C
:10017000DF91CF911F91FF90EF900895DF92EF9262
:10018000FF920F931F93CF93DF93F62EE82EEC018F
:1001900030E6D32E8C2F8E198F1580F589918093A0
:1001A0006B00ABDF809168008D258093680000E0D4
:1001B00010E080916D0090916E000817190750F7BC
:1001C00064E670E088E690E069DF809167009091D6
:1001D0006B00891308C090917200891721F09091EB
:1001E00071008913D7CF8091600090E025E0880FDF
:1001F000991F2A95E1F7080F191FDBCF81E0DF91E6
:10020000CF911F910F91FF90EF90DF900895CF93C2
:10021000DF93FC018181811106C0F0939000E0938F
:100220008F0088E06BC0A481B0E0813041F48C91F4
:100230008083F0939000E0938F0081E05FC0928113
:10024000823011F49C9359C0492F477021E030E06F
:1002500001C0220F4A95EAF7833021F420958C9152
:10026000282304C0843021F48C91282B2C9345C082
:10027000853049F490936000B99887B3856287BB55
:1002800088B3887D04C0863021F480E287BB88BBB8
:1002900034C0873059F4EF01BF01CF010296FEDE72
:1002A000D0939000C0938F0084E028C0883031F450
:1002B000909372008381809371001FC024813581E7
:1002C0003093700020936F00893011F480E211C0E8
:1002D0008B3011F480EA0DC02281338130936E009F
:1002E00020936D008A3011F480E403C08C3029F42F
:1002F00080EC80936C008FEF01C080E0DF91CF91A4
:100300000895DF92EF92FF920F931F93CF93DF93A5
:1003100008E010E0C0E0D0E8DD2EDC0ED1BE99D1BF
:100320007C0184E3E81689E0F8060CF4CD2DD6951F
:100330000150110989F78FEF8C0F81BF0C2F10E04E
:100340000F5F1F4F21B730E0021713078CF081D1E8
:100350008453994097FF03C09195819591098E151B
:100360009F0514F4C1B77C0181B78F5F81BFEACFCD
:10037000C1BF61B780E090E0DF91CF911F910F91F5
:10038000FF90EF90DF90FFC2CF93C62F20918000A7
:1003900024FF07C03091810028E8232720938100A3
:1003A00003C02AE520938000DC01E2E8F0E08C2F16
:1003B0008E0F9D9191938E13FCCF6C2F82E890E06D
:1003C00044D1CC5FC0938000CF910895CF93DF9349
:1003D00060919100635067FDA5C080918E00CCE0D4
:1003E000D0E0C81BD109CB56DF4F80918D008D32F4
:1003F00009F087C0683009F093C083EC80937500E2
:100400008AE580936200109274008881807639F0CA
:10041000CE01FDDE982F8F3F09F462C068C09A813B
:1004200010927E008981811106C010927F002EE714
:1004300030E092E050C0853019F49093920048C0AB
:10044000863081F58B81813041F487E390E0909391
:10045000900080938F0092E121C0823041F48EE1C0
:1004600090E09093900080938F0099E117C08330C3
:10047000A1F4911108C08FE590E0909390008093D3
:100480008F0094E00BC0923041F489E490E09093A7
:10049000900080938F0096E101C090E080E480930B
:1004A000740025C0883069F0893019F49093940065
:1004B0000FC08A3049F08B3059F48BE4809381006F
:1004C00007C024E930E002C02EE730E091E003C02D
:1004D0002EE730E090E03093900020938F0007C02B
:1004E000888187FD9E8180E88093740007C08F819A
:1004F000811104C08E81891708F4982F90936100B0
:100500000FC08091740087FF0BC0CE0137DE8F3F94
:1005100021F48EE18093620003C08111109261008A
:10052000109291008091620084FF56C0809161001A
:100530008F3F09F451C0C82F893008F0C8E08C1BE8
:10054000809361009091750088E8892780937500F9
:10055000CC2389F12091740027FF08C06C2F86E717
:1005600090E0EDDDC82F893088F525C080918F009F
:100570009091900026FF0BC0A6E7B0E0FC012C2F65
:10058000280F34913D9331962E13FBCF09C0DC0127
:10059000E6E7F0E02C2F2E0F3D9131932E13FCCF88
:1005A0002FEF2C0F30E02F5F3F4F820F931F909360
:1005B000900080938F006C2F86E790E046D0CC5F50
:1005C000CC3041F08FEF8093610004C08FEF8093B7
:1005D0006100CEE1C093620084E196B3987131F47A
:1005E0008150D9F71092920010928C00C1E08111D5
:1005F000C0E0809173008C1729F0C11101C081DE29
:10060000C0937300DF91CF910895AC9A8BB780624D
:100610008BBFE0E8F0E08BE481838AE58083089576
:10062000A82FB92F80E090E041E050EA609530E0DB
:1006300009C02D9182279795879510F084279527DB
:10064000305EC8F36F5FA8F30895EADF8D939D9342
:100650000895A6E088279927AA9569F00197E1F304
:10066000B399FCCFB39BFECF81E09927A6B3019647
:1006700011F0A871D9F70895CF93CFB7CF93C39551
:10068000B39BE9F7B39B0BC0B39B09C0B39B07C0F7
:10069000B39B05C0B39B03C0B39B01C0D5C00F92F1
:1006A000DF93C0918E00DD27CB56DF4F012EB39B29
:1006B00003C0DF910F90E6CF2F930F931F934F93BB
:1006C0002FEF4F6F06B303FB20F95F933F9350E08A
:1006D0003BE065C016B30126502953FDC89556B3BB
:1006E000012703FB25F92F7306B3B1F0502710271C
:1006F00013FB26F906B22230F0F000C016B3012732
:1007000003FB27F90126502906B22430E8F54F777C
:10071000206816B30000F6CF50274F7D206206B246
:10072000102F000000C006B300265029102713FB2D
:1007300026F906B2E2CF4F7B06B3206400C0DACFC1
:1007400001265029187106B269F14E7F2160012FF0
:1007500016B328C0002650294D7F06B22260102F04
:1007600029C0012650294B7F06B22460012F2DC0DD
:1007700016B301265029477F2860000006B22EC01C
:100780004F7E06B3206130C0422706B3499300264E
:100790005029102706B24FEF13FB20F9297F16B31B
:1007A00079F2187159F10126502906B2012703FB8D
:1007B00021F9237F06B371F2002650293150D0F081
:1007C00006B2102713FB22F9277E16B351F2012639
:1007D0005029012703FB06B223F92F7C49F20000C0
:1007E00006B3102713FB24F90026502906B22F79EF
:1007F00039F270CF10E21ABF002719C03B50319573
:10080000C31BD04010E21ABF0881033C09F10B342E
:10081000F9F020918C001981110F1213EDCF4A814C
:10082000441F093651F10D3211F0013E29F70093B2
:1008300093003F915F914F911F910F912F91DF9105
:100840000F90CAB7C5FD1BCFCF91CFBFCF911895E1
:1008500020919300222369F310919100112379F5DF
:1008600034307AF13093910020938D0010918E00F6
:100870003BE0311B30938E0024C000919100013089
:10088000F4F40AE54F7049F43091620034FD1AC067
:1008900000936200C5E7D0E019C03091800034FDBC
:1008A00011C000938000C1E8D0E010C0052710E01F
:1008B00000C021C0052710E0C89508BB14C03AE568
:1008C00001C032ED032EC0E0D0E032E017B3186172
:1008D000C39A08B317BB58E120E84FEF20FF052764
:1008E00008BB279517951C3F28F700004552B0F725
:1008F00020FF0527279508BB17951C3FB8F62991BF
:100900003A9561F7077E10919200110F08BBC25013
:10091000D04011F010938C0010E21ABF086017B39A
:10092000177E402F477E54E05A95F1F708BB17BB5E
:1009300048BB7FCF80E287BB88BB80E090E01BD0C4
:100940008F3F09F081BFBB9A84E1E2EBF1EF319771
:10095000F1F700C000008150C1F7BB989EE088E12C
:100960000FB6F894A89581BD0FBE91BD4EDE789468
:10097000A8952CDDFDCFE199FECF1FBA8EBBE09A82
:1009800099278DB30895262FE199FECF1CBA1FBA7F
:100990008EBB2DBB0FB6F894E29AE19A0FBE01967A
:0609A0000895F894FFCF5A
:0409A60032FF5A00C2
:00000001FF
